:1000000000400020190C0000590C00005B0C00009F
:1000100000000000000000000000000000000000E0
:100020000000000000000000000000005D0C000067
:1000300000000000000000005F0C0000610C0000E8
:1000400015090000B9290000630C0000630C0000D2
:10005000630C000000000000C5070000630C0000F6
:10006000630C0000630C000045390000ED0A00003D
:10007000630C0000630C0000630C0000630C0000C4
:10008000630C0000630C0000630C0000630C0000B4
:10009000112D0000630C0000630C0000630C0000D5
:1000A000630C0000630C0000000000000000000072
:1000B0000000000000000000000000000000000040
:1000C00008B5064B064803331B1A062B00D808BD9B
:1000D000044B002BFBD09847F9E7C046880000206E
:1000E000880000200000000008B50748074B1B1AD5
:1000F0009B10DA0FD318591000D108BD044A002A0A
:10010000FBD09047F9E7C046880000208800002017
:100110000000000010B5074C2378002B09D1FFF731
:10012000CFFF054B002B02D0044800E000BF0123A5
:10013000237010BD8800002000000000DC3A0000A1
:1001400008B5094B002B03D00848094900E000BF5F
:1001500008480368002B03D0074B002B00D09847BA
:10016000FFF7C2FF08BDC04600000000DC3A0000F7
:100170008C0000208400002000000000144B002BA5
:1001800000D1124B9D46402292029A1A92460021BB
:100190008B460F461148124A121A00F07DF80D4B9B
:1001A000002B00D098470C4B002B00D09847002024
:1001B000002104000D000B4800F016F800F046F88E
:1001C0002000290000F062FA00F016F80000080094
:1001D0000040002000000000000000008800002017
:1001E0007C0500202502000008B5011C0020021C2F
:1001F000031C00F059F808BD084B10B5041C002B77
:1002000002D0002100F0A8F8054B1868836A002B83
:1002100000D09847201C00F00FF9C0465903000099
:10022000943A000038B5074B074C1D1CE41AA41083
:10023000002C04D0013CA300EB589847F8E703F0EA
:1002400021FC38BD800000208400002070B50E4BDA
:100250000E4D0024ED1AAD101E1CAC4204D0A300BC
:10026000F35898470134F8E703F006FC084B094DB2
:100270000024ED1AAD101E1CAC4204D0A300F358AC
:1002800098470134F8E770BD7C0000207C00002016
:100290007C00002080000020031C8218934202D0C2
:1002A00019700133FAE77047F7B5284D061C2C6822
:1002B0000191171C0093002C01D1254C2C60616822
:1002C0001F2912DD234B002B02D1012040423CE0CC
:1002D0008C2000E000BF041EF7D02A6800230260D3
:1002E000021C8832436028601360002E25D0251C34
:1002F0008835286800280ED1164B002BE5D08420C5
:10030000400000E000BF0028DFD0031C0022FC33C7
:100310005A609A602860626801219300C31880C304
:100320009140FC300A1C4168114341600099D96733
:10033000022E02D183681A438260636801995A1CB5
:1003400002339B00626000201951FEBD3001002085
:10035000A400002000000000F0B587B005900491D3
:10036000334F3C68002C61D0231C88331B680193F9
:10037000636801985D1E01339B00AE00E318861987
:100380000293002D3BDB0499002907D0019A002A33
:100390002FD0331C80331B688B422AD162680298AD
:1003A000013A0368954201D1656002E0029900229A
:1003B0000A60002B1DD0626801980392002806D0C5
:1003C000011CFC3101224868AA40104201D1984723
:1003D00008E08968114203D105983168984701E027
:1003E00030689847039962689142B9D13B68A3424B
:1003F000B6D10298013D0438043E0290C1E70D4B8E
:10040000002B13D06168236800290CD1002B0AD07F
:10041000019A3B60002A02D0101C00E000BF201CA3
:1004200000E000BF9DE7271C1C1C9BE707B0F0BD48
:100430003001002000000000FEE7C0462C4B1B7876
:10044000012B00D070472B4B1B681A07FAD12A4AA0
:10045000F02312681A4003D0102A01D0302A03D1A9
:10046000264A12681A421FD0234AF02312681A4003
:10047000402A29D0204B1A68F0231340A02B01D02A
:10048000D02BDFD11D4B1A68F0231A42DAD11C4A57
:100490001368012B04D01B4B13601368012BFCD194
:1004A000194BC0221A60CDE7184A194B1A60194B34
:1004B000802212021A600E4B1B78012BC2D10D4B09
:1004C0001B681A07D0D0BDE70C4A12681A42D1D176
:1004D000C1238022DB000121D205D150044B1B78BF
:1004E000012BAFD1034B1B681A07C3D0AAE7C04644
:1004F000E00F00F0E40F00F0E80F00F0EC0F00F068
:1005000000EC06407593000014EC0640DFFF07C0C6
:1005100004050040186C0040F0B55F4656464D4655
:100520004446F0B4A223A022D205DB00D358514D9B
:10053000514983B09943286800F07AF94F4B041C65
:100540001868FA2101301860890003F03BFA4C4E1C
:100550002A6830604B4F944200D185E02007C00FDD
:10056000C0018046E006C00F80010122A307844637
:1005700022402020DB0F2040D2009B0001920093FC
:100580008146620F012313404A46134360074246E7
:100590001343C00F6246610013430001019AC90F63
:1005A00018434900009B02438B4613433649584683
:1005B00003430B70E300DB0FDB019A46A301DB0F63
:1005C0009B019946E001A202A303C00FD20FDB0FEB
:1005D000400192005B00804601920093220B2002B2
:1005E00001231340C00F524600011A434B46844674
:1005F0001A43600243461A43C00F63461A43C000C1
:100600001043019A009B024313434B70600328D4AC
:1006100040220023200300D5131CE202D20F520116
:100620001343A204D20F1201DBB21343E203D20F31
:10063000D20013432204D20F920013436204D20F5C
:1006400052001343002003228B7000F02EFB36680B
:100650002C603E6003B03CBC90469946A246AB4637
:10066000F0BDC0228023D5E73B68C01A0A2800D914
:1006700074E7EFE7640100203FF0FF7360010020A2
:1006800034010020680100205C01002038B5002002
:1006900000F014FE322000F0BBFD002000F00EFD43
:1006A000354800F067FC354800F07CFC00F0DAFAD1
:1006B00000F0E2F8002000F0FDF8314C314A002152
:1006C000201C00F0B3F90121201C00F0FDF92E4A96
:1006D0002E49A023DB055A50E221C9005A502C496B
:1006E0002C4D5A50E121C9005A50E021C9005A50FE
:1006F00029495A50EF21C9005A5028495A50EE2131
:10070000C9005A5026495A50EC21C9005A5025496F
:100710005A50EB21C9005A5023495A5023495A5084
:10072000E621C9005A50E921C9005A5020495A50BF
:10073000EA21C9005A501F495A50E821C9005A50AD
:100740001D495A50E721C9005A501C4A8021C12333
:100750009B000906D1501A4B40221A6020BF40BFAF
:1007600020BF2B78201C002B02D000F0A1F9F5E768
:1007700000F092F9F2E7C0460403020108070605FB
:10078000983A0000190500000C0003000C07000057
:10079000140700003801002004070000740700005F
:1007A000640700005C0700005407000044070000D5
:1007B0004C070000340700003C07000000600040C8
:1007C00000E100E0054ABE235B00D158002903D0B8
:1007D0000021D150024B19707047C04600600040A4
:1007E0003801002000B5202385B0C9B20393002949
:1007F00001D105B000BD064903AA00F099FA054BE6
:100800001B68002BF5D1044B01221A70F1E7C0469A
:100810003C010020640100203801002082B002B0B9
:100820007047C04682B002B07047C0467047C046AD
:1008300030B50F4A0F4B15686C1CAD001460595150
:10084000052C11D059681A680C1C14400A43996889
:100850000C401143DA681B6914400A43191C2140FB
:1008600008431343184030BD00211160EAE7C04639
:100870006C0100207001002038B50D4C8520237AD2
:10088000002B00D038BD636023602361E360AA229F
:100890008023DB05FF21D2009950A3220125D2003D
:1008A00000209D50032100F083F825720020E9E725
:1008B0008401002038B5051C002000F067F8124CB8
:1008C000A37A002B0BD0002D02D06B680120984733
:1008D000E36801330020E36000F060F838BD002DCC
:1008E00002D0236925612B60E368002BF1D1074A10
:1008F00080211360C1229200C90502208850044A59
:1009000001211160E5E7C046840100200401004098
:100910000800004010B51A4B1A68002A14D00022B3
:100920001A608021C2220123164C9200C9058B5007
:1009300063726368002B07D01A6800205B686260EE
:1009400098476368002BF7D10F4B1A68002A15D01F
:1009500000221A60C22380229B000A4C0221D20589
:10096000D1500123A3722369002B07D01A680120FC
:100970005B68226198472369002BF7D110BDC04600
:1009800000010040840100200401004072B6024BC7
:100990001A6801321A60704798010020034A1368F0
:1009A000013B1360002B00D162B670479801002014
:1009B000F0B500281FDB82081A4B9200D218C0B293
:1009C000C02303249B00FF250440E400D6582F1CBD
:1009D000A7408901BE430D40A540341C2C43D45090
:1009E0001F23184001238340181CC0220D4B5200C6
:1009F00098501860F0BDC0B20F230340083B0A4A6C
:100A00009B089B009B180322FF240240D200DE6952
:100A1000251C95408901AE430C409440321C224372
:100A2000DA61DDE700E100E000ED00E070B5051CF3
:100A30000C1C002A0DD043791449980042505A00EA
:100A4000002C1ED0124ED3189A5D0820002A02D026
:100A500070BD0720FCE704202856A178FFF7A8FF07
:100A600022882968A123DB00CA506B7921795A00BA
:100A7000D318F2185170E1780020917001229A5534
:100A8000E6E7D418034964000C19DBE79C01002059
:100A9000A0010020A03A0000036801221A604379F7
:100AA00002215A00D318014A99547047A00100202E
:100AB000026801235360427951008A180149535456
:100AC0007047C046A001002010B5802304680022B2
:100AD0005B00E2500468D12201239200A350002958
:100AE00003D00168C12292008B5010BD08B5C1220D
:100AF000434B9200995880225202114203D041493F
:100B0000086800284ED13E4BC1229200995880229D
:100B10009202114203D03C49086800284FD1384B5B
:100B2000C122920099588022D202114203D0374943
:100B30000868002850D1324BC12292009958802277
:100B40001203114203D03249086800281DD12C4BF2
:100B5000C12292009A58D10704D580225200995898
:100B6000002946D1264BC12292009A58910704D5FC
:100B7000822252009958002900D108BD00219950C5
:100B8000244B05201B689847F7E7D22080001A50B5
:100B9000C22080001A5000230B601E4B03201B68EC
:100BA0009847D4E7D22080001A50C22080001A5003
:100BB00000230B60174B00201B689847A3E7D22047
:100BC00080001A50C22080001A5000230B60114B85
:100BD00001201B689847A2E7D22080001A50C2204B
:100BE00080001A5000230B600A4B02201B689847B4
:100BF000A1E700219950074B04201B689847B1E7F3
:100C000000B0004040B1004044B1004048B1004055
:100C10004CB100409C01002003210A4802680A43AD
:100C20000260094802680A4302600849084A094B01
:100C30009B1A03DD043BC858D050FBDCFFF7FEFBDA
:100C4000FFF79CFA2405004054050040E83A0000F4
:100C50000000002088000020FEE7FEE7FEE7FEE738
:100C6000FEE7FEE708B5064B1868002803D10549E2
:100C700002220A7002E001F049F9012008BDC046D5
:100C8000A4010020E4010020014B1868407E704759
:100C9000A401002008B500F011FE002802D100F0E8
:100CA000F8FD01E0FFF7C2FD08BDF8B5051C0F1CFB
:100CB000161C072804D904221B4E0020327031E094
:100CC00003220029F8D00622202EF5D800F04CFE91
:100CD00009220228F0D8281C00F04AFE0A22022825
:100CE000EAD800F049FE08220128E5D900F0F4FD19
:100CF0004378041C0670012003436370391C321CC6
:100D0000A01C02F0AFFEE8B2211C00F0F9FD051CAA
:100D10000120002D06D1054802F0CAFA024F0F212A
:100D20003970281CF8BDC046E4010020DD00050034
:100D3000F8B5061C0D1C171C00F01AFE002803D184
:100D4000154F0B253D7025E00322002D07D0301CE8
:100D500000F0FCFD3A6803789A4204D206220E4E57
:100D60000020327016E0301C00F0E6FD041E0AD0B0
:100D70000278811C3A60281C02F074FE201C00F0EE
:100D8000B5FD012006E0054802F092FA02490F2065
:100D90000870201CF8BDC046E401002005010500D4
:100DA00008B5072804D9044B04221A70002001E07A
:100DB00000F0DAFD08BDC046E401002008B50728B0
:100DC00005D9044B042201201A70404201E000F0D2
:100DD000CFFD08BDE401002008B500F0CDFD0623DD
:100DE000181A08BD10B5041E072C03D90B4B042498
:100DF0001C7003E0FFF7D4FF022801DD00200CE0A7
:100E0000201CFFF7DBFF0228F8DCFFF7E5FF0623D5
:100E1000181A012181429241504210BDE401002084
:100E200008B50A4B19684A7E002A04D0084A0C21EA
:100E30001170002009E0072803D9054B0420187021
:100E4000F7E7C0B200F09CFD012008BDA40100201E
:100E5000E401002008B5072804D9054B04221A70C4
:100E6000002003E0C0B200F0A5FD012008BDC0468F
:100E7000E401002010B501280AD0002803D0022880
:100E800008D1002000E0012001F028F8012005E051
:100E90000220F9E7024B05221A70002010BDC0465F
:100EA000E401002010B500F011FD01280AD0022451
:100EB000002808D0A04201D1012404E0034802F038
:100EC000F7F900E00024201C10BDC04670010500A9
:100ED00038B5134A031C10680C1C407E002804D04F
:100EE000104D02202870002018E001390F2903D985
:100EF0000C4907220A7011E0002B03D1094C03238F
:100F00002370F0E7084D191C10C5221C281C02F0A4
:100F1000A9FD281C211C00F0BDFD012038BDC046E4
:100F2000A4010020E4010020600000200C4B10B55B
:100F30001A680C68944201D3102C04D9094C07207C
:100F4000207000200AE0002803D1064903220A701D
:100F500004E00A60191D02F085FD012010BDC046A5
:100F600060000020E4010020014B18687047C04673
:100F70006000002008B5074B19684A7E002A04D09B
:100F8000054B02201870002002E000F01DFD01203A
:100F900008BDC046A4010020E401002008B500F00F
:100FA00023FD08BD08B5074B19684A7E002A04D006
:100FB000054B02201870002002E000F01BFD01200C
:100FC00008BDC046A4010020E401002008B500F0DF
:100FD0001FFD08BD08B50A4B1A68537E002B04D0CC
:100FE000084B02221A70002008E0072803D90548A0
:100FF00004210170F7E700F011FD012008BDC04693
:10100000A4010020E401002010B50C1C072804D91D
:101010000422064B00201A7006E003220029F8D0B3
:1010200000F028FD2070012010BDC046E401002022
:1010300008B5074B19684A7E002A04D0054B0220E8
:101040001870002002E000F065FD012008BDC046D8
:10105000A4010020E401002008B500F061FD08BDF6
:1010600008B50E4A031C1068407E002804D00C48C6
:101070000222027000200FE0012B0AD0002B07D0C3
:10108000022B01D1012004E0054B0E21197003E071
:10109000022000F0DDFD012008BDC046A4010020B3
:1010A000E401002008B501F023F80021012801D84F
:1010B000014B195C081C08BDA83A000008B5134B89
:1010C00019684A7E002A04D0114A022111700020BA
:1010D0001BE006280FD802F06BFC12140406080A65
:1010E0000C00FC200EE0F8200CE0F4200AE0F020D8
:1010F00008E0EC2006E0064B0E201870E7E704201D
:1011000000E0002000F046FD012008BDA401002001
:10111000E401002008B500F04BFDF02813D004D8FE
:10112000042814D0EC2806D10FE0F82807D0FC28BA
:1011300003D0F42805D001200AE0022008E00320B3
:1011400006E0042004E0052002E0062000E0002084
:1011500008BD08B5064B19684A7E002A04D0054B25
:1011600002201870002002E000F0E0FC012008BD21
:10117000A4010020E401002008B500F0DDFC08BD5A
:1011800008B5074B19684A7E002A04D0054B022097
:101190001870002002E000F097FC012008BDC04656
:1011A000A4010020E401002008B500F093FC08BD74
:1011B00008B5074B19684A7E002A04D0054B022067
:1011C0001870002002E000F0CBFC012008BDC046F2
:1011D000A4010020E401002008B500F0C9FC08BD0E
:1011E00008B5074B19684A7E002A04D0054B022037
:1011F0001870002002E000F0A5FC012008BDC046E8
:10120000A4010020E401002008B500F0A3FC08BD03
:1012100008B5074B19684A7E002A04D0054B022006
:101220001870002002E000F0A9FC012008BDC046B3
:10123000A4010020E401002008B500F0A5FC08BDD1
:1012400008B50B4B19684A7E002A04D0094A0221CE
:10125000117000200AE0002805D0012803D0054BBA
:101260000E201870F5E700F05BFF012008BDC046B6
:10127000A4010020E401002008B500F057FF013868
:101280004342584108BD08B50A4B19684A7E002AF6
:1012900004D0094A0221117000200AE0002805D07C
:1012A000012803D0044B0E201870F5E700F050FF22
:1012B000012008BDA4010020E4010020F8B51E4D66
:1012C00000241E4E071C281C211C0C2208303470E0
:1012D0006C60FEF7E1FF1A4800F048FE2860A0426B
:1012E00003D101203070002024E0164B181D19682E
:1012F000FFF7EEFD051C381CFFF7BCFD0540042080
:1013000000F0EEFB201CFFF79BFFEFB2074001202F
:10131000FFF7D4FE07400220FFF7A2FE0740201C83
:10132000FFF7B1FF041C01203C4000F0E7FE002C59
:10133000D7D00120F8BDC046A4010020E401002060
:10134000BB1300006000002008B500F007FF013863
:101350004342584108BD024B0022DA607047C04644
:10136000A4010020014BD8687047C046A4010020AA
:10137000044B002200B51A72904202D0186101207D
:10138000187200BDA4010020014B18787047C046B8
:10139000E4010020014B00221A707047E401002094
:1013A000014B58687047C046A4010020014B002241
:1013B0005A607047A40100207047F0B589B0040C52
:1013C000031C060A84460190101C039297B2020C7B
:1013D0000D1C002002910092E1B2624606AC06901C
:1013E00060600590D0B21B0EF6B2052854D802F00A
:1013F000DFFA03142943403D6A4649B2484223704C
:101400001388E080281C6780A38000F06FFA301CEE
:1014100006996268FFF7E6F941E022490B68587EB9
:10142000002802D1204801F043FF281C6D4600F03F
:101430005DFA67802F88301CA78006996268FFF7E5
:10144000EDF92CE048B205AC424223706280002BDB
:1014500007D0002D02D1154801F02AFF281C00F00A
:1014600045FA301C0599FFF7DDF918E0FFF7DEF9C2
:1014700015E0FFF7A1FF12E00A4DE9682B7A013170
:10148000E960002B0BD02F69002F02D1FFF702FC7F
:1014900005E0013F2F6102E0054801F009FF09B0B6
:1014A000F0BDC046A4010020B5030500C30305003C
:1014B000E3030500024B03490F221A70486070478E
:1014C000E4010020A401002000B5064A01231178A0
:1014D000022903D05068421E904100E0181C1840B9
:1014E000C0B200BDE801002008B5FFF7EDFF044BD6
:1014F000044A002801D0D06800E09068186008BD58
:10150000BC0100202002002008B5044B5A68002AC4
:1015100001D0013A5A60FFF7E7FF08BDE80100205B
:1015200010B500231A1C041C1C4101212140072472
:10153000E41AA1400A430133D2B2082BF3D1101CA4
:1015400010BD70B50024061C251C301CE040C0B244
:10155000FFF7E6FF1823191B884008340543202CA9
:10156000F3D1281C70BD38B50D1C01F071FE084C7C
:1015700063699D4202D8074801F09AFE6069012222
:10158000291A054802F058F90021616138BDC046AA
:10159000E80100204D0609009132000007B5A123A3
:1015A00003210F4A8B40D15001F094FD002815D043
:1015B00002280AD9032811D1002300930193181C93
:1015C000191C1A1C01F09EFC03E00020011C01F014
:1015D00035FD042802D0034801F06AFE07BDC0466D
:1015E00000F00140E801090008B501F027FFA12340
:1015F0000E4AD900505001F06DFD012807D001F0CE
:1016000069FD022802D00A4801F052FE002001F0D4
:10161000B9FA02F093F9074BA221CA009850064884
:10162000064AC1684868985008BDC046001000408E
:101630001E06090000F00140BC0100201405000056
:1016400008B502F0EDF801280FD002F0CDF8074BF5
:10165000187F002803D180210122CB055A60002089
:1016600001F0F6FD024A0020506008BD2002002073
:10167000E801002010B501F06AFD00281AD00E4BD9
:1016800000229A81DA8101F0C5FB0C4C0C496050B4
:1016900001F0C0FBA62201238340D100635001F07A
:1016A000BFFB084C206001F0C1FB074B6060E360AA
:1016B000FFF79AFF10BDC046E8010020001000406F
:1016C0002C050000040200207117000008B502F08C
:1016D000A7F8012822D101F0D5FD002802D010483A
:1016E00001F0E6FD1E210F48002202F0A5F80E4B86
:1016F000197F002902D002F06BF80FE00B480C4B69
:101700000122026059608021C8050260C046C046BF
:10171000C046C0465A68002AFCD0ECE708BDC04667
:101720002C06090091320000200200201405004020
:10173000FC0000401FB5FFF783FF01F0D9F80A4A0B
:10174000002301A80521017043601C1C0381438113
:1017500043708370C3709370537601F09DFA034811
:101760000470FFF71BFF1FBDE80100201C020020D2
:10177000F0B53E4B8022D000195887B0012904D023
:101780003B4C00261D59B54206D13A4E20227768BF
:1017900000263B789A427641374C012561692E40FC
:1017A000281C002901D102F041F8284201D1012072
:1017B000606101F08FFC012802D0304801F078FD13
:1017C0002F4DEF683B7D002B02D02E4801F070FDBD
:1017D00001F08EF8002E47D00120011C01F02EFCF4
:1017E000042836D802F0E4F803321832320001F04F
:1017F00017FBE289071CA689019201F00BFBE9683F
:101800006D46897D0497AF8803AB00221A701E8154
:101810005F815870997014E001F002FB071CE089A9
:10182000A689019001F0F6FAEB686D469A7D04975F
:10183000AF8803AB00219A7019701E815F815870C8
:101840000122DA70181C01F027FA02E00E4801F0BC
:101850002FFD01F019FE0D4E206170696060FFF7E9
:1018600043FE002001F016FE07B0F0BD001000405E
:101870003405000004020020E8010020A806090049
:10188000BC010020A9060900C806090020020020AA
:10189000704708B5012282F31088074B597E002952
:1018A00005D09878002802D19A70FFF70FFF002228
:1018B00082F3108808BDC046E8010020024B0120D9
:1018C000597E48407047C046E8010020014B187817
:1018D0007047C046E801002008B5012383F3108853
:1018E00001F094FC002181F3108808BD08B50123A4
:1018F00083F3108801F08EFC002080F3108808BD6F
:1019000008B5012383F3108801F0EAFB00280DD00D
:1019100008488278002A04D1417E002901D0FFF7CF
:10192000D5FE002383F31088012001E080F31088A6
:1019300008BDC046E801002008B5012383F31088E4
:1019400001F0F6FB002181F3108808BD08B501F015
:10195000EAFB08BD08B5012383F3108801F0D3FB2F
:10196000002181F3108808BD08B501F0D8FB08BD3F
:1019700008B501F0E7FB08BD08B501F04FFC08BD54
:1019800010B50123041C83F3108808480278002A4C
:1019900005D0417E002902D0054801F089FC201CB9
:1019A00001F0B5FB002484F3108810BDE80100208D
:1019B000FB02090008B5012383F3108801F0BDFB89
:1019C000002080F3108808BD08B5044B1862FFF7AB
:1019D000B8FD0349034A505008BDC046200200200C
:1019E0001C05000000100040014B186A7047C046FB
:1019F0002002002008B5044B5862FFF7A2FDA42185
:101A0000024ACB00D05008BD200200200010004048
:101A1000014B586A7047C04620020020F8B5031CED
:101A2000081C072B1AD80F4A03261E40D118F600AF
:101A3000FF24B4402831E74308700B4C032B01D836
:101A40000A4D01E0A525ED0063591F406751FFF7DE
:101A500067FD6759B0400743675102E0044801F051
:101A600027FCF8BD200200200010004024050000E3
:101A70003903090010B5041E072C02D9034801F0F0
:101A800017FC034B18192830007810BD41030900DA
:101A90002002002038B5051C0C1E02D1074801F0B9
:101AA00007FC002D02D1064801F002FC054B002086
:101AB0009D605C6001F0D6FC38BDC046480309005B
:101AC00049030900BC010020014B58617047C04622
:101AD00020020020014B58697047C04620020020B8
:101AE000064B074AA32110B55877CB00D458010400
:101AF000044820400843D05010BDC04620020020BA
:101B000000100040FFFFF8FF014B587F7047C046B0
:101B100020020020014B18617047C04620020020BF
:101B2000014B18697047C04620020020014B5860E5
:101B30007047C04620020020014B58687047C046DD
:101B40002002002008B5024BD860FFF7CDFC08BD8D
:101B500020020020014BD8687047C04620020020B8
:101B600008B5024B9860FFF7BFFC08BD20020020BB
:101B7000014B98687047C04620020020014B5883F3
:101B80007047C04620020020014B588B7047C0466A
:101B900020020020034B0449044A3033187050508F
:101BA0007047C046200200200C05000000100040D5
:101BB000014B30331878704720020020184B10B5C5
:101BC00031331870174A184BFF249958A143995084
:101BD000032821D8995801F0EBFE1D020A140124B4
:101BE000214399501149FF205850114906E0022025
:101BF000014399500F490D4A99500F49A722D2002D
:101C000008E00324214399500C480849A722585062
:101C1000A2400021995002E0094801F049FB10BDA3
:101C20002002002034050000001000403C050000A8
:101C300007010000FFFF000021100100FFFFFF006F
:101C4000C2030900014B313318787047200200208D
:101C50001F4B00B532331870012821D0002810D056
:101C6000022834D1A2211B4ACB00D0501A491B486C
:101C70001B4A08601B4B1C481C491A6008601C4A20
:101C800020E0A223134AD9005050134B1348154AA1
:101C9000186013491748154B11601860164A11E077
:101CA000A2230C4AD90050500B4B0C480C490D4A4A
:101CB000186011601148124A0C4B124918601160EB
:101CC000114A02E00E490A60104A1148026000BD44
:101CD000200200200010004024170040005000782F
:101CE0004E0000542817004008800C602C1700405C
:101CF0008864720003800C602264720002800C60B1
:101D00003017004011646600DEC08F823E420F82B1
:101D100034170040F8B5A122334C344B344E354DC6
:101D2000D000002703210122F75031506751625142
:101D3000E05831490F220140E150E5580620954313
:101D40000543E550E1582D4DC02290020D4005435A
:101D5000E550A323DD006159294A80230A406251DE
:101D600060595904014361516059FF229043202377
:101D70001843605161592348C022084060512248ED
:101D800053000221C15001F0D5FD2049204A705076
:101D90007251204D032373511F4800F0E1FD1F4E87
:101DA0001F4DF060687FFFF79BFE286AFFF70CFE6F
:101DB000686AFFF71FFEE81928300178381C0137E0
:101DC000FFF72CFE082FF6D12F1C30373978154A33
:101DD000A1502C1C313420783235FFF7EFFE2878E3
:101DE000FFF736FFF8BDC0460010004014050000A4
:101DF00000F00140FC0F0000FFFEFFFFFFFFF0FFBF
:101E0000FFFFFFFDFF00FFFF00E100E01C050000F9
:101E1000041100400405000004020020BC01002061
:101E2000200200200C05000070B5274E86B03378E4
:101E300072789A4245D0002B01D1FFF76BFF707882
:101E4000002801D1FFF7AAFB2049214D00246C5046
:101E500000F04EFD1F4D2C606C602C61AC60EC609E
:101E60003378012B08D101F035F9A04217D0201C9E
:101E7000211C01F0E3F812E0022B10D100F038FD34
:101E8000154A2C61147001F025F9032807D100943C
:101E90000194201C211C221C231C01F033F8FFF7A5
:101EA00023FB70780024307003A804260670446079
:101EB0000481448144708470C47000F0EDFE012000
:101EC00000E0002006B070BDE8010020140500000D
:101ED00000F00140040200201C02002008B501238C
:101EE00083F3108808490A78824208D04870487EF7
:101EF000002802D1FFF798FF01E0FFF7E7FB00237E
:101F000083F3108808BDC046E801002038B5124BA5
:101F10005A7E1C1C002A1DD1FFF7FCFE0F48816869
:101F2000051C002902D10E4801F0C2F96B68002B94
:101F300002D10C4801F0BCF901F098F9002802D058
:101F4000094801F0B5F9002001F082F9012262761A
:101F5000FFF7BCFB38BDC046E8010020BC010020F3
:101F60005E0209005F02090066020900F8B5071C5D
:101F7000012080F31088544D544B554E002400220C
:101F800003211C605C609C60DC601C611A75297018
:101F90002A766A76B46074606870AC706C60AC600D
:101FA000AC81EC812C616C6101F0D6FB381C00F037
:101FB00059FE00F0F5FE201C01F042F9301C01F042
:101FC0007BF9444FC2208300F958434AC0260A4097
:101FD000FA50B0003B584149C5221940395096008B
:101FE000BB59FF20402183430B43BB510120FFF726
:101FF00075FF3B4E3B4B3C48311C336270622831CD
:102000000123301C0B7029300223311C03702A314C
:1020100003200870FF22311C32612B3104220A7028
:102020007277321C2C3205201070321C2D320621A2
:10203000301C11702E3007220270301C2F30082106
:10204000321C0170303200201070321C0120311C13
:1020500032321070313196229A400B701E2171611C
:102060007260F360FFF740FA0F23B360FFF73CFAAA
:1020700001207483307670760021201C692431772A
:1020800001F0D0F834606E780124A64202D01748DF
:1020900001F00EF900262C70AE706E60AE60AE815D
:1020A000EE812E616E612E766E76FFF733FEC023D1
:1020B000802180225800CC0053033C503B5086F3D3
:1020C0001088281CF8BDC046E8010020040200204A
:1020D000BC01002000E100E0FFFF00FFFF00FFFF68
:1020E0002002002004070A0D05080B0E3C0209001F
:1020F000014B32331878704720020020054B10B591
:10210000041CD868002802D1034801F0D1F8034923
:102110000C7510BDBC010020F6030900040200206C
:10212000014B18767047C04620020020014B187EF4
:102130007047C04620020020014B58767047C046C9
:1021400020020020014B587E7047C046200200202C
:10215000014B18777047C04620020020014B187FC2
:102160007047C0462002002008B501F05BF808BDAA
:1021700008B50B4BD868417D002906D0012000F03E
:102180005BFB084B9A8901329A810749074B084A41
:102190000020585051681368C91AFFF7E4F908BDC8
:1021A000BC010020E80100201405000000F00140FF
:1021B00020020020084B10B51A781C1C012A02D0FE
:1021C000064801F075F80649064A022000232070EF
:1021D0000B61CA6010BDC0461C02002092050900B8
:1021E000040200208522000010B500F081FB194890
:1021F00019491A4C00230122027023610869A623A1
:10220000174AD900505000F065FF00280AD100F0AD
:1022100075FD01280DD900F00FFE6060002808D17F
:10222000104804E000F056FF032802D00E4801F0E9
:102230003FF8022000F0A6FC002000F0FDFA00F0BC
:1022400049FF032802D0094801F032F8FFF7B2FF36
:1022500010BDC0461C020020200200200402002005
:10226000001000407B050900800509008805090071
:1022700008B5034B05221A70FFF7B6FF08BDC0462C
:102280001C020020F0B5484A8023D800115887B0BE
:10229000464C012904D0464D002356599E4205D193
:1022A000676800233978202088425B41414E03252E
:1022B00000210127357021603B408B4255D081239E
:1022C000D80015583C4B11583C48D15002A912581F
:1022D0003B1C00910194381C291C00F013FE0328BC
:1022E00041D801F065FB1E02204E0298002802D062
:1022F000334800F0DDFF281C00F024FF002802D145
:10230000304800F0D5FF304903A8CF680223B97DDB
:102310000027037047603A1C078147814570817030
:102320001DE02A482BE0029A002A02D1284800F03A
:10233000BFFF281C00F006FF002802D1254800F04E
:10234000B7FF214F03A8FB68029F997D022200235B
:102350000270476003814381457081700122C27021
:1023600000F09AFC0DE01C4809E000930193181C52
:10237000191C1A1C00F0C6FD042802D0174800F0F2
:1023800097FF2568002D06D100F0B2FA657525612A
:10239000FFF72AFF05E0124801226275206104243C
:1023A000347007B0F0BDC0460010004004020020A9
:1023B000340500001C0200202C0500000C04000065
:1023C000B8050900B9050900BC010020BD050900D8
:1023D000C0050900C1050900C8050900CF050900AD
:1023E0007122000070B50C4DA124E4002E5901F0BB
:1023F00025F886420AD001F021F82851FFF7F4FEB3
:10240000064900204968FFF7AEF870BD044B187804
:102410000028F3D0F4E7C04600100040200200205E
:102420001C020020F0B5864C0125636989B0281C88
:10243000002B01D101F0FAF90126284000D0D3E0A9
:102440002178B14202D100F04BFA10E0022908D005
:1024500000F042FFFFF758F8A678002E00D0A9E060
:102460000EE0784A1378033BDDB2AE4240410028CB
:10247000EED0754E75487768012279086161CBE02E
:10248000FFF7D2FC704D071E00D08EE0207801903F
:10249000061E012E06D0002863D0022865D1FFF762
:1024A000A1FF65E000F024FA00F014FE00281DD121
:1024B00000F024FC012851D9FFF706F8071E0CD0C4
:1024C00000F0FAFF002849D1287E00280BD100F047
:1024D000DBFF2669B04241D105E0206900F0C2FF70
:1024E000381C00F0D7FFFFF7C5F837E0698B0029EB
:1024F00020D0A2898A421DD3311C381C00F09EFDD9
:1025000000F08EFC0290A2890392E68900F082FC22
:1025100069460A79029905AB1A7006910C22694640
:10252000515A5870181C19815E819F70DF7000F03D
:10253000B3FB13E001F07AF9002802D0444800F020
:10254000B7FEA1234348DF00C65900F077FF86425B
:1025500002D0E1890131E181FFF746F801202968C5
:1025600000E06968FEF7FFFF02E03B4800F0A0FED4
:102570006D7E012D23D1FEF7A7FF00281FD12478FF
:10258000012C07D0002C0DD0022C18D0334800F0BD
:102590008FFE14E000F09EFD002810D100F034FC06
:1025A00000280CD1FFF74CF809E06968301CFEF7F1
:1025B000DAFF04E0647E002C01D0FFF7BBF800F0E6
:1025C0009DFB01280CD905A800210323037041605D
:1025D0000181418141708170C17000F05DFB2DE08F
:1025E0001F4800F065FE29E0FEF78EFFA778002F58
:1025F0001DD12178022912D1124B1D78033D012DE6
:1026000004D900F069FEFFF7EDFE17E00E4F321C13
:10261000786841080D48616101F00EF90EE000F0A4
:102620005BFE094A381C5168FEF79DFF06E000F08A
:1026300053FE607E002801D0FFF77CF809B0F0BDA2
:10264000E80100201C02002020020020913200003E
:102650000A0509000010004058040900720409002E
:102660008C04090007B50190C046C046C046C0466C
:10267000C046C046C046C046C046C046C046C0462A
:10268000C046C046019B013B0193002BECD107BD26
:1026900070B58022164B910000245C501549C2256C
:1026A0000E78AD00144A032E07D109267442C126C4
:1026B0005C510825B4001D510AE0012676425E51A6
:1026C000C0230E4D02265B00EE50146103244C70B3
:1026D00000235360536193604B600B75984205D0A3
:1026E000074801680A69002A00D0904770BDC046BB
:1026F0000010004054020020FC10004000E100E007
:10270000CC010020F8B53F4B1A69012A53D19D69CD
:102710003D4C802296000135032104209D611870F4
:10272000C025A15139496A0002278F50384F002631
:102730003E61C1227E607E61BE60364E08259100FA
:10274000655035682A7D3D1C002A17D0A927F9005D
:102750006258314F9A75A023D9007A58024202D1AB
:102760002E4800F0A5FD00200123A12228620421AB
:10277000A361D300F950A927F900605068680028C8
:1027800002D0274800F094FD2D69002D02D0254885
:1027900000F08EFD244A536899072DD43768F968F4
:1027A000002900D088473668707D002828D0356819
:1027B0001E4AA55024E0022A1AD1154900250D61B0
:1027C00011484D6180244D6001278D60C221A60013
:1027D0007A428C0085511D700251032058705D6053
:1027E0001D750C4B1E683769AF4209D0B84707E02A
:1027F0000F4800F05DFD03E00E4800F059FDCDE705
:10280000F8BDC046540200200010004000E100E086
:10281000FC100040CC01002000F00140AD020A0095
:10282000B6020A00B7020A00FCE100E0040500005D
:10283000E7020A00B8020A0070B51E4D061C6B7D47
:102840006C78002B02D11C4800F032FD287D002856
:1028500002D01A4800F02CFD012200212A7569756A
:10286000022C0CD816482301C318002E01D11E6873
:102870003260621E012A05D8997A297002E0114857
:1028800000F016FD104D2868037D002B11D0022C9E
:102890000FD10E4C0E4E251C3259530702D40D4851
:1028A00000F006FD0C494859002802D10B4800F001
:1028B000FFFC70BD5402002021010A0022010A0021
:1028C000AC3A00003A010A00CC01002004050000E7
:1028D00000F0014040010A000010004041010A00E0
:1028E000024B98680138434258417047FC10004041
:1028F000F8B5164B164C02200121C027C222D8671A
:102900004D4282407B00134E8021134FA5508140E1
:102910000025F050012265507D61104D2261A261B9
:102920002C78944201D1062003E0023C012C00D90E
:10293000101C0024FFF796FE7C61201C2C70FFF712
:10294000A7FE02206C753060F8BDC04604E100E0CF
:102950000010004000E100E0FC10004054020020A4
:1029600038B50E4B0E4C18600E490F4B0F4A02251E
:10297000201DC56799500E48A421CA009850FFF742
:10298000B7FF0C48002303210370417043600361CB
:10299000037543758375256038BDC046CC010020A2
:1029A00000E100E01410004000F0014024050000A8
:1029B000041100405402002070B55C4C2369607D16
:1029C000013365782361002802D0594800F070FC7B
:1029D0002178032948D1574E3269002A44D0012D6D
:1029E00035D12269032A02D0534800F061FCA06966
:1029F00002210130514A8025A06100238D40012031
:102A0000217053514542C22088401550C0256800AE
:102A10004B4D29504B493361096873607361B36052
:102A20000326667063602375087D98420DD0A92542
:102A3000E80016580125A6753E4C042623629561D0
:102A4000A124414DE4002E511350CA6865E0022DC7
:102A500008D12369012B02D03C4800F029FCFFF784
:102A600051FE61E03A485DE0032D5AD0012D3CD182
:102A70002169012918D12F480021304B0126C2229B
:102A80004160816070429100C1265850B0001D50D5
:102A90002C4D304E2A68117D002902D02A4D042089
:102AA000A851E4689C513FE002293DD1234E214AC0
:102AB0008023002598000221C223156155615560CD
:102AC00035504A429800C12132508B000822F25002
:102AD00003262670656025751A4C2568261C286912
:102AE000002800D08047306816E0022DB7D0657806
:102AF00019482B01C1180E7B0025AE4203D00D4AA8
:102B000015696A1E95418B7A01202370FFF7C0FD7D
:102B1000002D09D00B4C20688268002A04D0904711
:102B200002E00E4800F0C4FB70BDC0465402002015
:102B300090010A00FC1000409F010A0000100040B4
:102B400000E100E0CC01002000F00140A4010A00F7
:102B5000A9010A0004050000AC3A0000D6010A00F1
:102B600008B5022804D8054B18784342584103E0C1
:102B7000034800F09DFB002008BDC0465402002021
:102B8000F9020A00F8B52B4C0301061C2A4F207DE0
:102B9000FF18002802D0294800F08AFB301CFFF7FC
:102BA000DFFF002802D1264800F082FB0121C2226B
:102BB000244D0023484291006375C0226850224989
:102BC00002205200885021486670026811685268DD
:102BD0002361A3613B68A160E2606360022E18D8A4
:102BE000387A80239B00E850F87A194B002805D1E9
:102BF000E950EA58002A08D1164804E0EA50E9589A
:102C0000002902D1144800F053FB7F7AC1208300D1
:102C1000EF500E4D29680A7D002A07D0022E05D1FB
:102C20000B480E4B00260427A6751F50012565751D
:102C3000F8BDC04654020020AC3A0000DB000A0098
:102C4000DD000A000010004000E100E0CC0100209F
:102C50000405000000010A0005010A0000F001401F
:102C60007047C04610B5041E02D1084800F020FB92
:102C7000074B00221C60191DDA670833CA678020E1
:102C8000DA67044B44031C6010BDC04629000B00EA
:102C90007802002000E100E070B5144C051C2368A8
:102CA000002B02D1124800F003FB201C0830C16F3A
:102CB000092902D90F4800F0FBFAE66F0C225643AF
:102CC000A319043343CD43C3251C0835E86F0130F5
:102CD000E867E16F0131E167E66F092E01D9002253
:102CE000E2678024044B65035D6070BD78020020BC
:102CF00034000B0035000B00FCE100E0034B0A2020
:102D00000833D96F421AD0B27047C046780200200B
:102D1000F0B587B0012383F31088134C124D0834AB
:102D2000E06F00281BD02A1DD16F0C26714303AB26
:102D300069180431181CE0C9E0C0E76F0026013FA4
:102D4000E767D46F0134D467D56F092D00D9D667F2
:102D500086F31088044A176807CBB847DAE780F390
:102D6000108807B0F0BDC0467802002038B50A4C84
:102D7000051CE36F002B02D1084800F099FA291CCA
:102D80000831E06F00F03CFC0021884201D0E1678F
:102D90000121081C38BDC046000300206F020C0052
:102DA00010B500F0B7FB0021124A880000238418F8
:102DB0008818A361A363041C8034883023700370D7
:102DC0000D480C18013123700829EDD1111C101C7D
:102DD000141C903191305834137053609360D36059
:102DE000136153610B7003702370D3679232012318
:102DF000137010BD0003002094030020014B185CE9
:102E00007047C04694030020014B903318787047F8
:102E100000030020014B58687047C04600030020A3
:102E2000014B98687047C04600030020014BD868EA
:102E30007047C0460003002010B5104C2378002BCB
:102E400002D00F4800F034FAE06F002802D100F001
:102E50008BFBE067E06F00280FD0012143784A42E6
:102E600006210B43437002700023C218FF21013377
:102E70009170202BF9D10323237010BD0003002093
:102E80003B010C0038B5124C2378002B1ED1201CBE
:102E900090300178002919D10825606900F028FCDC
:102EA000002805D0231C6069903301221A7020612C
:102EB00061690131082900D10021231C616190332F
:102EC0001A78002A02D1013D002DE6D138BDC04656
:102ED0000003002038B5094D041C2B1C90331878D2
:102EE000002804D02969A14201D1FFF7CBFF2A199C
:102EF000034B0025803215701D5538BD000300209E
:102F000094030020F0B5464D85B00393EB6F061C8B
:102F10000C1C171C002B02D1424800F0C9F928787C
:102F2000032802D0404800F0C3F9E96F01234A7832
:102F30001A4202D192352D786B400425002E61D0C3
:102F400050070126810F1E40251C231C0A0608334A
:102F50000E353F023249A8003F0A02930B5817432F
:102F60000B980A9A0025156005609F4233D0201CFB
:102F7000FFF7FCFE0190AE4200D0051C01232E1C81
:102F80001E40002828D00299254A06318800875023
:102F9000039F1D1C002F20D0244F3B5D002B1CD015
:102FA000201C00F0A5FB002802D1214800F080F988
:102FB000201C00F05BFB051E02D0201CFFF78AFFDF
:102FC0000A990D60002D02D11A4800F071F9002015
:102FD0003855022501E001950325002E0DD0201C57
:102FE00000F06CFB0B9E3060002802D1124B336066
:102FF00005E00E4F01223A5501E00B9C2660019935
:10300000002905D1064CE06F00F0CCFA0020E06703
:10301000034A00261670FFF735FF281C05B0F0BDE7
:10302000000300205B010C005C010C0094030020F5
:1030300091010C0096010C0058030020F8B51F4CBC
:10304000071C23780E1C013B012B02D91C4800F001
:103050002FF90425002F19D02078012802D0194813
:1030600000F026F9E268002A02D1174800F020F9A2
:10307000E16800250F78AF4208D06068FFF776FE60
:103080000225002802D1114800F012F9002E0ED0BE
:103090006768381C00F0EAFA061E02D0381CFFF7F9
:1030A00019FFA3689E4202D0094800F001F90020F0
:1030B0002070FFF7E7FE281CF8BDC0460003002083
:1030C000FC000C0002010C0003010C000E010C00BE
:1030D0001E010C00014B18787047C0460003002009
:1030E00038B5041C0D1C00F013FB002801D1002092
:1030F00008E0281C211C00F083FA0028F7D0FFF715
:10310000C1FE012038BD08B500F0D8FA08BD10B5E1
:10311000041CFFF7DFFE201C00F000FB10BD08B50B
:1031200000F0E6FA08BD08B5083000F0C7FA08BD9F
:1031300008B5083000F09AFA08BD08B5083000F06C
:10314000EDFA08BD08B5083000F0D2FA08BD10B598
:103150002A4C2378002B02D0294800F0A9F8201C23
:1031600090300178002927D02069606000F0A6FA2D
:10317000A060002802D1234800F09AF8A268012339
:103180005078034004D1211C92310A78002A10D1D2
:103190006068FFF7D7FF02280ED8E36F002B02D13B
:1031A00000F0E2F9E067E16FE160002904D001205E
:1031B00001E0E360022020702278002082421BD0D0
:1031C000A368834202D1104800F072F82069606061
:1031D000063081006318DA7803210132D0B2D8704A
:1031E000A36808405A784100062082430A435A7077
:1031F000903400232370012010BDC046000300203E
:10320000C3000C00C9000C00E7000C0008B500F07A
:10321000ABF908BD08B500F0C5F908BD08B500F068
:1032200077FA08BD014B92331870704700030020F5
:10323000014B923318787047000300207047C04656
:10324000024B9870587018707047C0469C0300205D
:1032500010B5041E012C02D9024800F029F8024BD7
:103260005C7010BD2A000D009C030020014B1878F3
:103270007047C0469C030020014B98787047C046B9
:103280009C030020014B58787047C0469C030020E7
:1032900008B5054B1A7858789A701870034B81005E
:1032A000CA58904708BDC0469C0300207400002007
:1032B00008B5FEF7FFF808BD10B5041E02D104489A
:1032C000FFF7F6FF034B00221C605A609A6010BDA6
:1032D0002A000100D0010020094B00B518689A6847
:1032E000016801329A608A4208D359684068002216
:1032F00001319A605960814200D35A6000BDC046D6
:10330000D0010020F8B500282AD0164CA368012867
:103310000ED1276801333A68A360934220D36068D6
:10332000796800250130A5606060884218D316E0F6
:103330002668C7183568A760381C291C00F042FBB6
:1033400062683B1C80186060AB4201D35B1BFBE7EB
:1033500071686568A3608D4201D36D1AFBE76560F3
:10336000F8BDC046D0010020024B1A689968106869
:10337000401A7047D001002070B50D4D041C2B6819
:103380005868844202D30B48FFF792FF6E68B4423C
:103390000CD002D829684A68A418FFF7E5FF2D6809
:1033A000F3432E6819197143081800E0002070BD1E
:1033B000D00100206800010070B5041C0D1C88427B
:1033C00002D30B48FFF774FF0A4E33681868854232
:1033D00002D90948FFF76CFFB168601AA14206D311
:1033E0000020A94203D3326815686E1A301970BDE7
:1033F0007D000100D00100207E00010038B5041CD2
:10340000101C0D1CFFF7B8FF002801D0001911E0B7
:10341000201C291CFFF7D0FF041CFFF7A5FF031C8D
:10342000201E984206D304490D686A682C68013A48
:103430005443001938BDC046D0010020074B10B5D9
:103440001A68596850681C1C814202D30448FFF76F
:103450002FFF236861689A68505C10BDD00100207E
:10346000B200010038B5064B041C1A681D1C5068D8
:10347000844202D30348FFF71BFF6C6038BDC0468F
:10348000D0010020B9000100014B58687047C046C8
:10349000D001002038B5064B041C1A681D1C1068AA
:1034A000844202D30348FFF703FFAC6038BDC04637
:1034B000D0010020C5000100014B98687047C0464C
:1034C000D001002010B50F4B1A68002393420BD295
:1034D0000D499C006458A04203D10C48FFF7E8FE58
:1034E0000CE00133DBB2F1E70024222262430849F9
:1034F0005318984204D00134062CF6D1002000E085
:10350000012010BDA0030020A4030020F60003004A
:10351000AC04002010B500220F4950008018002391
:103520000C1801326370A3704354102AF4D1222284
:103530005A430A490A485418211C9A0084502231DF
:10354000DE22227001348C42FAD10133062BEED1F7
:10355000044C236010BDC046BC030020AC04002016
:10356000A4030020A003002038B50A4B1C68002CDF
:103570000ED0621E084990004458084D1A6045500C
:10358000201CFFF79FFF002802D10548FFF790FE9F
:10359000201C38BDA0030020A4030020ADDEADDE5A
:1035A0007D00030070B5104C051C2368052B02D963
:1035B0000E48FFF77DFE281CFFF784FF002802D18C
:1035C0000B48FFF775FE21680A488A0011580A4B1C
:1035D000061C994202D00948FFF76AFE2068820063
:1035E0000130B550206070BDA003002085000300AD
:1035F00086000300A4030020ADDEADDE88000300DA
:10360000F8B5051C0C1E0F2C02D91448FFF750FE0C
:10361000281CFFF757FF002802D11148FFF748FE8A
:10362000104966003019435C0022022B13D80B1896
:103630005F78C0190C4F8000C5515D780135E8B244
:1036400058705F78022F00D95A7032198C5C01349F
:10365000E6B28E540122101CF8BDC0468F00030054
:1036600090000300BC030020EC03002038B5041ECA
:103670000F2C02D90E48FFF71BFE0E4A65002919D0
:10368000885C002813D05318987809180A488900D4
:10369000085899780131C9B299709978022901D9ED
:1036A000002199702C19155D013DEBB2135538BD01
:1036B000A6000300BC030020EC03002010B5041E8C
:1036C0000F2C02D90748FFF7F3FD074B62001119D1
:1036D000C85C002805D0581884780B1903499A0053
:1036E000505810BDB7000300BC030020EC030020BD
:1036F00010B5041E0F2C02D90348FFF7D9FD630053
:1037000002491819405C10BDC8000300BC0300202A
:10371000014B18687047C046A003002038B5051E4D
:103720000F2D0CD90948FFF7C3FD08E0084B9C4258
:1037300002D10848FFF7BCFD201CFFF733FF281C0F
:10374000FFF794FF041EF1D138BDC046D700030037
:10375000ADDEADDEDB000300164BA12110B501226A
:10376000CC0000205A60DA6018515A64124A1C1CBE
:103770009958814202D01148FFF79AFD0123C222D5
:10378000584291000E4B60500022A2215A6404203E
:10379000CB00E0500B490C4C012022602271627179
:1037A00008700A4B8022C021D40081405C501C600C
:1037B00010BDC04600A000404405000035000400D4
:1037C000FCA0004078050020DC01002000E100E0C2
:1037D000034B0449012200201A6008707047C0465C
:1037E00000A0004078050020094A30B5012353604D
:1037F000084CD3608025084AC0200021ED00984085
:103800001160117125505171044A137030BDC046CA
:1038100000A0004000E100E0DC010020780500206D
:10382000014B18787047C04678050020014B187985
:103830007047C046DC010020F7B5334F0092334C8F
:103840008022C2237E790191051C990050026050AC
:10385000002E02D02E48FFF72BFD002D02D12D485F
:10386000FFF726FD3A68002A02D02B48FFF720FD1B
:103870003D60009D294E012D0DD0002D03D0022D5D
:103880000DD1A92208E00120254B00996064E5587C
:103890002064716407E0A822D500655903E021483F
:1038A000FFF706FD002501227A71019FA821E81982
:1038B00087B20023C80073642750275800976264BA
:1038C000174AA758716C1E1C994202D01648FFF780
:1038D000EFFC009BAB4205D3AF4201D39F420CD318
:1038E000124808E0301CAF427041009DAF42764163
:1038F000B04202D00E48FFF7DBFC8022C121570204
:103900008E00A751F7BDC046DC01002000A000409A
:10391000730004007500040076000400FCA0004061
:1039200044050000890004009B000400B00004006E
:10393000C90004000048704748A000400048704794
:1039400040A1004070B58022134C144DC223500298
:103950009900002668506664114C2268B24202D178
:103960001048FFF7A5FC104B012166712068A822C2
:1039700026606964EE58D300EA580C4D1432AE420A
:1039800003D8C0231D02AA4202D800219642494111
:103990002171804770BDC046FCA0004000A00040DF
:1039A000DC010020EC00040044050000FF3F0000A3
:1039B00002B4714649084900095C49008E4402BCC2
:1039C0007047C046002934D00123002210B4884239
:1039D0002CD301242407A14204D2814202D209013E
:1039E0001B01F8E7E400A14204D2814202D249005F
:1039F0005B00F8E7884201D3401A1A434C08A04202
:103A000002D3001B5C0822438C08A04202D3001B97
:103A10009C082243CC08A04202D3001BDC082243AE
:103A2000002803D01B0901D00909E3E7101C10BCD2
:103A30007047002801D00020C04307B4024802A10B
:103A40004018029003BDC046190000000029F0D0C4
:103A500003B5FFF7B9FF0EBC4243891A1847C046A9
:103A60007047C04610B50023934203D0CC5CC454C9
:103A70000133F9E710BD0000F8B5C046F8BC08BC3A
:103A80009E467047F8B5C046F8BC08BC9E467047D5
:103A9000430000000000002000B000400B000400C4
:103AA0001F0003020000000001020000001000409F
:103AB0001011004003100000010000000010004041
:103AC000000000000B020400000000000410004091
:103AD00000000000070803010000000000000000D3
:083AE0009CC6FF7F01000000FD
:103AE80000000000000000000000000000000000CE
:103AF80000000000000000000000000000000000BE
:103B0800903A0000000000000000000000000000E3
:103B1800000000000000000000000000000000009D
:103B2800000000000000000000000000000000008D
:103B3800000000000000000000000000000000007D
:103B48000500000004192A3F4D0000000000000095
:103B58000000000025240000712100004101000040
:083B680015010000000000003F
:0400000300000C19D4
:00000001FF
